{
  "address": "0x38a029E840A5d019effa264167347960DaeF8515",
  "abi": [
    {
      "inputs": [
        {
          "internalType": "string",
          "name": "_baseURI",
          "type": "string"
        }
      ],
      "stateMutability": "nonpayable",
      "type": "constructor"
    },
    {
      "anonymous": false,
      "inputs": [
        {
          "indexed": true,
          "internalType": "address",
          "name": "owner",
          "type": "address"
        },
        {
          "indexed": true,
          "internalType": "address",
          "name": "approved",
          "type": "address"
        },
        {
          "indexed": true,
          "internalType": "uint256",
          "name": "tokenId",
          "type": "uint256"
        }
      ],
      "name": "Approval",
      "type": "event"
    },
    {
      "anonymous": false,
      "inputs": [
        {
          "indexed": true,
          "internalType": "address",
          "name": "owner",
          "type": "address"
        },
        {
          "indexed": true,
          "internalType": "address",
          "name": "operator",
          "type": "address"
        },
        {
          "indexed": false,
          "internalType": "bool",
          "name": "approved",
          "type": "bool"
        }
      ],
      "name": "ApprovalForAll",
      "type": "event"
    },
    {
      "anonymous": false,
      "inputs": [
        {
          "indexed": false,
          "internalType": "string",
          "name": "newURI",
          "type": "string"
        }
      ],
      "name": "BaseURIUpdated",
      "type": "event"
    },
    {
      "anonymous": false,
      "inputs": [
        {
          "indexed": false,
          "internalType": "uint256",
          "name": "_fromTokenId",
          "type": "uint256"
        },
        {
          "indexed": false,
          "internalType": "uint256",
          "name": "_toTokenId",
          "type": "uint256"
        }
      ],
      "name": "BatchMetadataUpdate",
      "type": "event"
    },
    {
      "anonymous": false,
      "inputs": [
        {
          "indexed": true,
          "internalType": "address",
          "name": "donor",
          "type": "address"
        },
        {
          "indexed": false,
          "internalType": "uint256",
          "name": "totalDonated",
          "type": "uint256"
        },
        {
          "indexed": false,
          "internalType": "uint256",
          "name": "count",
          "type": "uint256"
        },
        {
          "indexed": false,
          "internalType": "uint256",
          "name": "lastDonation",
          "type": "uint256"
        }
      ],
      "name": "DonorUpdated",
      "type": "event"
    },
    {
      "anonymous": false,
      "inputs": [
        {
          "indexed": false,
          "internalType": "uint256",
          "name": "amount",
          "type": "uint256"
        }
      ],
      "name": "ETHRecovered",
      "type": "event"
    },
    {
      "anonymous": false,
      "inputs": [
        {
          "indexed": false,
          "internalType": "uint256",
          "name": "_tokenId",
          "type": "uint256"
        }
      ],
      "name": "MetadataUpdate",
      "type": "event"
    },
    {
      "anonymous": false,
      "inputs": [
        {
          "indexed": true,
          "internalType": "address",
          "name": "previousOwner",
          "type": "address"
        },
        {
          "indexed": true,
          "internalType": "address",
          "name": "newOwner",
          "type": "address"
        }
      ],
      "name": "OwnershipTransferred",
      "type": "event"
    },
    {
      "anonymous": false,
      "inputs": [
        {
          "indexed": true,
          "internalType": "address",
          "name": "token",
          "type": "address"
        },
        {
          "indexed": false,
          "internalType": "uint256",
          "name": "amount",
          "type": "uint256"
        }
      ],
      "name": "TokensRecovered",
      "type": "event"
    },
    {
      "anonymous": false,
      "inputs": [
        {
          "indexed": true,
          "internalType": "address",
          "name": "from",
          "type": "address"
        },
        {
          "indexed": true,
          "internalType": "address",
          "name": "to",
          "type": "address"
        },
        {
          "indexed": true,
          "internalType": "uint256",
          "name": "tokenId",
          "type": "uint256"
        }
      ],
      "name": "Transfer",
      "type": "event"
    },
    {
      "anonymous": false,
      "inputs": [
        {
          "indexed": true,
          "internalType": "address",
          "name": "newVault",
          "type": "address"
        }
      ],
      "name": "VaultUpdated",
      "type": "event"
    },
    {
      "inputs": [
        {
          "internalType": "address",
          "name": "to",
          "type": "address"
        },
        {
          "internalType": "uint256",
          "name": "tokenId",
          "type": "uint256"
        }
      ],
      "name": "approve",
      "outputs": [],
      "stateMutability": "nonpayable",
      "type": "function"
    },
    {
      "inputs": [
        {
          "internalType": "address",
          "name": "owner",
          "type": "address"
        }
      ],
      "name": "balanceOf",
      "outputs": [
        {
          "internalType": "uint256",
          "name": "",
          "type": "uint256"
        }
      ],
      "stateMutability": "view",
      "type": "function"
    },
    {
      "inputs": [],
      "name": "baseURI",
      "outputs": [
        {
          "internalType": "string",
          "name": "",
          "type": "string"
        }
      ],
      "stateMutability": "view",
      "type": "function"
    },
    {
      "inputs": [
        {
          "internalType": "address",
          "name": "",
          "type": "address"
        }
      ],
      "name": "donors",
      "outputs": [
        {
          "internalType": "uint256",
          "name": "totalDonated",
          "type": "uint256"
        },
        {
          "internalType": "uint256",
          "name": "donationCount",
          "type": "uint256"
        },
        {
          "internalType": "uint256",
          "name": "lastDonation",
          "type": "uint256"
        },
        {
          "internalType": "uint256",
          "name": "tokenId",
          "type": "uint256"
        }
      ],
      "stateMutability": "view",
      "type": "function"
    },
    {
      "inputs": [
        {
          "internalType": "uint256",
          "name": "tokenId",
          "type": "uint256"
        }
      ],
      "name": "getApproved",
      "outputs": [
        {
          "internalType": "address",
          "name": "",
          "type": "address"
        }
      ],
      "stateMutability": "view",
      "type": "function"
    },
    {
      "inputs": [
        {
          "internalType": "address",
          "name": "",
          "type": "address"
        }
      ],
      "name": "hasMinted",
      "outputs": [
        {
          "internalType": "bool",
          "name": "",
          "type": "bool"
        }
      ],
      "stateMutability": "view",
      "type": "function"
    },
    {
      "inputs": [
        {
          "internalType": "address",
          "name": "owner",
          "type": "address"
        },
        {
          "internalType": "address",
          "name": "operator",
          "type": "address"
        }
      ],
      "name": "isApprovedForAll",
      "outputs": [
        {
          "internalType": "bool",
          "name": "",
          "type": "bool"
        }
      ],
      "stateMutability": "view",
      "type": "function"
    },
    {
      "inputs": [
        {
          "internalType": "address",
          "name": "donor",
          "type": "address"
        },
        {
          "internalType": "uint256",
          "name": "amount",
          "type": "uint256"
        }
      ],
      "name": "mintOrUpdateBadge",
      "outputs": [],
      "stateMutability": "nonpayable",
      "type": "function"
    },
    {
      "inputs": [],
      "name": "name",
      "outputs": [
        {
          "internalType": "string",
          "name": "",
          "type": "string"
        }
      ],
      "stateMutability": "view",
      "type": "function"
    },
    {
      "inputs": [],
      "name": "nextId",
      "outputs": [
        {
          "internalType": "uint256",
          "name": "",
          "type": "uint256"
        }
      ],
      "stateMutability": "view",
      "type": "function"
    },
    {
      "inputs": [],
      "name": "owner",
      "outputs": [
        {
          "internalType": "address",
          "name": "",
          "type": "address"
        }
      ],
      "stateMutability": "view",
      "type": "function"
    },
    {
      "inputs": [
        {
          "internalType": "uint256",
          "name": "tokenId",
          "type": "uint256"
        }
      ],
      "name": "ownerOf",
      "outputs": [
        {
          "internalType": "address",
          "name": "",
          "type": "address"
        }
      ],
      "stateMutability": "view",
      "type": "function"
    },
    {
      "inputs": [
        {
          "internalType": "address",
          "name": "tokenAddress",
          "type": "address"
        },
        {
          "internalType": "uint256",
          "name": "amount",
          "type": "uint256"
        }
      ],
      "name": "recoverERC20",
      "outputs": [],
      "stateMutability": "nonpayable",
      "type": "function"
    },
    {
      "inputs": [
        {
          "internalType": "uint256",
          "name": "amount",
          "type": "uint256"
        }
      ],
      "name": "recoverETH",
      "outputs": [],
      "stateMutability": "nonpayable",
      "type": "function"
    },
    {
      "inputs": [],
      "name": "renounceOwnership",
      "outputs": [],
      "stateMutability": "nonpayable",
      "type": "function"
    },
    {
      "inputs": [
        {
          "internalType": "address",
          "name": "from",
          "type": "address"
        },
        {
          "internalType": "address",
          "name": "to",
          "type": "address"
        },
        {
          "internalType": "uint256",
          "name": "tokenId",
          "type": "uint256"
        }
      ],
      "name": "safeTransferFrom",
      "outputs": [],
      "stateMutability": "nonpayable",
      "type": "function"
    },
    {
      "inputs": [
        {
          "internalType": "address",
          "name": "from",
          "type": "address"
        },
        {
          "internalType": "address",
          "name": "to",
          "type": "address"
        },
        {
          "internalType": "uint256",
          "name": "tokenId",
          "type": "uint256"
        },
        {
          "internalType": "bytes",
          "name": "data",
          "type": "bytes"
        }
      ],
      "name": "safeTransferFrom",
      "outputs": [],
      "stateMutability": "nonpayable",
      "type": "function"
    },
    {
      "inputs": [
        {
          "internalType": "address",
          "name": "operator",
          "type": "address"
        },
        {
          "internalType": "bool",
          "name": "approved",
          "type": "bool"
        }
      ],
      "name": "setApprovalForAll",
      "outputs": [],
      "stateMutability": "nonpayable",
      "type": "function"
    },
    {
      "inputs": [
        {
          "internalType": "string",
          "name": "_uri",
          "type": "string"
        }
      ],
      "name": "setBaseURI",
      "outputs": [],
      "stateMutability": "nonpayable",
      "type": "function"
    },
    {
      "inputs": [
        {
          "internalType": "address",
          "name": "_vault",
          "type": "address"
        }
      ],
      "name": "setVault",
      "outputs": [],
      "stateMutability": "nonpayable",
      "type": "function"
    },
    {
      "inputs": [
        {
          "internalType": "bytes4",
          "name": "interfaceId",
          "type": "bytes4"
        }
      ],
      "name": "supportsInterface",
      "outputs": [
        {
          "internalType": "bool",
          "name": "",
          "type": "bool"
        }
      ],
      "stateMutability": "view",
      "type": "function"
    },
    {
      "inputs": [],
      "name": "symbol",
      "outputs": [
        {
          "internalType": "string",
          "name": "",
          "type": "string"
        }
      ],
      "stateMutability": "view",
      "type": "function"
    },
    {
      "inputs": [
        {
          "internalType": "uint256",
          "name": "tokenId",
          "type": "uint256"
        }
      ],
      "name": "tokenURI",
      "outputs": [
        {
          "internalType": "string",
          "name": "",
          "type": "string"
        }
      ],
      "stateMutability": "view",
      "type": "function"
    },
    {
      "inputs": [
        {
          "internalType": "address",
          "name": "donor",
          "type": "address"
        }
      ],
      "name": "tokenURIForDonor",
      "outputs": [
        {
          "internalType": "string",
          "name": "",
          "type": "string"
        }
      ],
      "stateMutability": "view",
      "type": "function"
    },
    {
      "inputs": [
        {
          "internalType": "address",
          "name": "from",
          "type": "address"
        },
        {
          "internalType": "address",
          "name": "to",
          "type": "address"
        },
        {
          "internalType": "uint256",
          "name": "tokenId",
          "type": "uint256"
        }
      ],
      "name": "transferFrom",
      "outputs": [],
      "stateMutability": "nonpayable",
      "type": "function"
    },
    {
      "inputs": [
        {
          "internalType": "address",
          "name": "newOwner",
          "type": "address"
        }
      ],
      "name": "transferOwnership",
      "outputs": [],
      "stateMutability": "nonpayable",
      "type": "function"
    },
    {
      "inputs": [],
      "name": "vault",
      "outputs": [
        {
          "internalType": "address",
          "name": "",
          "type": "address"
        }
      ],
      "stateMutability": "view",
      "type": "function"
    },
    {
      "stateMutability": "payable",
      "type": "receive"
    }
  ],
  "transactionHash": "0x11fdd48f1e3c554111cd9b290199aac0646c606c247b7cee8029da504b3dae6d",
  "args": [
    "https://red-raw-anteater-260.mypinata.cloud/ipfs/bafkreigtuv47oajacpcczo6isvsdu4w3edr5srxrn3xnwhh6psgxlaouzi/0.json"
  ],
  "numDeployments": 1,
  "solcInputHash": "3b45d1f6b408afa2443d278026f50e60",
  "bytecode": "0x608060405234620005475762002577803803806200001d8162000582565b92833981019060208082840312620005475781516001600160401b039283821162000547570192601f90808286011215620005475784518481116200054c57601f1995620000718285018816860162000582565b928284528583830101116200054757849060005b8381106200053257505060009183010152620000a062000562565b92601584527f486f7065436861696e20446f6e6f72204261646765000000000000000000000081850152620000d462000562565b60049081815263484f504560e01b8382015285518781116200043657600054966001978881811c9116801562000527575b868210146200051257908188849311620004bc575b50859088831160011462000457576000926200044b575b5050600019600383901b1c191690871b176000555b805190878211620004365786548781811c911680156200042b575b858210146200041657908187849311620003c0575b5084908783116001146200035c5760009262000350575b5050600019600383901b1c191690861b1785555b60078054336001600160a01b0319821681179092556001600160a01b03167f8be0079c531659141344cd1fd0a4f28419497f9722a3daafe3b4186f6b6457e0600080a38460085582519586116200033b57600b54908582811c9216801562000330575b838310146200031b5750838111620002cf575b50809285116001146200026457508394509083929160009462000258575b50501b916000199060031b1c191617600b555b604051611fce9081620005a98239f35b01519250388062000235565b929484908116600b60005284600020946000905b88838310620002b457505050106200029a575b505050811b01600b5562000248565b015160001960f88460031b161c191690553880806200028b565b85870151885590960195948501948793509081019062000278565b600b600052816000208480880160051c82019284891062000311575b0160051c019085905b8281106200030457505062000217565b60008155018590620002f4565b92508192620002eb565b602290634e487b7160e01b6000525260246000fd5b91607f169162000204565b604190634e487b7160e01b6000525260246000fd5b0151905038806200018d565b908a8994169184600052866000209260005b88828210620003a957505084116200038f575b505050811b018555620001a1565b015160001960f88460031b161c1916905538808062000381565b8385015186558c979095019493840193016200036e565b90915087600052846000208780850160051c8201928786106200040c575b918a91869594930160051c01915b828110620003fc57505062000176565b600081558594508a9101620003ec565b92508192620003de565b602284634e487b7160e01b6000525260246000fd5b90607f169062000161565b604183634e487b7160e01b6000525260246000fd5b01519050388062000131565b908b8a94169160008052876000209260005b89828210620004a557505084116200048b575b505050811b0160005562000146565b015160001960f88460031b161c191690553880806200047c565b8385015186558d9790950194938401930162000469565b90915060008052856000208880850160051c82019288861062000508575b918b91869594930160051c01915b828110620004f85750506200011a565b600081558594508b9101620004e8565b92508192620004da565b602285634e487b7160e01b6000525260246000fd5b90607f169062000105565b81810183015185820184015286920162000085565b600080fd5b634e487b7160e01b600052604160045260246000fd5b60408051919082016001600160401b038111838210176200054c57604052565b6040519190601f01601f191682016001600160401b038111838210176200054c5760405256fe6080604081815260049182361015610022575b505050361561002057600080fd5b005b600092833560e01c91826301ffc9a7146112d55750816306fdde031461122d578163081812fc1461120d578163095ea7b31461109f57816323b872dd1461107a57816338e21cce1461103c57816342842e0e1461100857816355f804b314610e2457816361b8ce8c14610e055781636352211e14610dd45781636817031b14610d265781636c0360eb14610c6557816370a0823114610bcf57816370cbaf96146108ab578163715018a61461084d57816376995398146108135781638980f11f146107325781638da5cb5b1461070957816395d89b4114610626578163a22cb46514610554578163b88d4fde146104c6578163c87b56dd146103ae578163ca0cdea814610354578163d3335553146102a2578163e985e9c514610252578163f2fde38b14610186575063fbfa77cf1461015b5780610012565b3461018257816003193601126101825760095490516001600160a01b039091168152602090f35b5080fd5b90503461024e57602036600319011261024e576101a16113a2565b906101aa6114e9565b6001600160a01b039182169283156101fc575050600754826001600160601b0360a01b821617600755167f8be0079c531659141344cd1fd0a4f28419497f9722a3daafe3b4186f6b6457e0600080a380f35b906020608492519162461bcd60e51b8352820152602660248201527f4f776e61626c653a206e6577206f776e657220697320746865207a65726f206160448201526564647265737360d01b6064820152fd5b8280fd5b50503461018257806003193601126101825760209161026f6113a2565b826102786113bd565b9260018060a01b03809316815260058652209116600052825260ff81600020541690519015158152f35b9190503461024e57602036600319011261024e578135916102c16114e9565b6102c9611a89565b838080808660018060a01b03600754165af16102e36118ea565b501561031c57507f0296f2c4dbc8c0e53c0ffab63f84aeebd5c28aa143475a37346bf15ac003f3279160209151908152a1600160085580f35b6020606492519162461bcd60e51b83528201526013602482015272115512081d1c985b9cd9995c8819985a5b1959606a1b6044820152fd5b5050346101825760203660031901126101825760809181906001600160a01b0361037c6113a2565b168152600c60205220908154916001810154916003600283015492015492815194855260208501528301526060820152f35b8391503461018257602091826003193601126104c35750356000818152600260205260409020546103e9906001600160a01b03161515611541565b600052600681528160002091805180936000908054610407816114af565b9182855260019187838216918260001461049c575050600114610459575b505050610455929161043891038561143a565b6000815161044581611408565b525192828493845283019061137d565b0390f35b86935060009291925282600020916000925b8284106104845750505082010181610438610455610425565b8054848a01860152889550879490930192810161046b565b60ff19168782015293151560051b8601909301935084925061043891506104559050610425565b80fd5b839034610182576080366003190112610182576104e16113a2565b906104ea6113bd565b916044356064359367ffffffffffffffff85116105505736602386011215610550576105256105489486602461054d98369301359101611478565b9261053861053384336116ca565b6115f1565b610543838383611792565b611a0b565b6116a6565b80f35b8580fd5b9190503461024e578060031936011261024e5761056f6113a2565b9060243591821515809303610622576001600160a01b0316923384146105e057503384526005602052808420836000526020528060002060ff1981541660ff8416179055519081527f17307eab39ab6107e8899845ad3d59bd9653f200f220920489ca2b5937696c3160203392a380f35b6020606492519162461bcd60e51b8352820152601960248201527f4552433732313a20617070726f766520746f2063616c6c6572000000000000006044820152fd5b8480fd5b8284346104c357806003193601126104c357508051600091600180549061064c826114af565b808552918181169081156106e15750600114610686575b50506106748261045594038361143a565b5191829160208352602083019061137d565b600081815294507fb10e2d527612073b26eecdfd717e6a320cf44b4afac2b0732d9fcbe2b7fa0cf65b8286106106c9575050509181016020019161067482610663565b805460208787018101919091529095019481016106af565b610455965085925060209150926106749360ff191682840152151560051b8201019450610663565b50503461018257816003193601126101825760075490516001600160a01b039091168152602090f35b90503461024e578160031936011261024e5761074c6113a2565b91602435916107596114e9565b610761611a89565b60018060a01b03809416936007541682519163a9059cbb60e01b835282015282602482015260208160448188885af18015610809576107ce575b507f46d2e6e71fc567877b817ff3d940571f989d4ee4d40f2b70806d36e738feef6f9160209151908152a2600160085580f35b6020813d8211610801575b816107e66020938361143a565b810103126106225751801515036107fd573861079b565b8380fd5b3d91506107d9565b82513d87823e3d90fd5b505034610182576020366003190112610182576104559061083a6108356113a2565b611d3f565b905191829160208352602083019061137d565b83346104c357806003193601126104c3576108666114e9565b600780546001600160a01b031981169091556000906001600160a01b03167f8be0079c531659141344cd1fd0a4f28419497f9722a3daafe3b4186f6b6457e08280a380f35b8383346101825780600319360112610182576108c56113a2565b6009546024803592916001600160a01b039081163303610ba1576108e7611a89565b821694858152602093600d855260ff868320541615600014610b0a5761090e600a54611adf565b600a55868252600d8552858220600160ff19825416179055600a548651916080830183811067ffffffffffffffff821117610af8579060039291895283528683016001815288840190428252606085019283528a8652600c89528986209451855551600185015551600284015551910155600a549685519261098f84611408565b8284528715610ab75750507f10c54acc3f1789aedee42a531c48033a30ae957fbc6103d413ae56ae98bad7e29492610a7861054860609694610a8a946109f36109ed8d600052600260205260018060a01b0360406000205416151590565b15611b04565b60008c815260026020526040902054909b90610a19906001600160a01b031615156109ed565b8a6000526003875287600020600181540190558060005260028752876000208b6001600160601b0360a01b825416179055808b60007fddf252ad1be2c89b69c2b068fc378daa952ba7f163c4a11628f55a4df523b3ef8180a48461191a565b610a84600a5491611d3f565b90611b50565b848652600c81528186209182549260026001820154910154928251948552840152820152a2600160085580f35b865162461bcd60e51b815291820186905281018590527f4552433732313a206d696e7420746f20746865207a65726f20616464726573736044820152606490fd5b634e487b7160e01b855260418b528585fd5b91600c8598929852858820928354908101809111610b8f578355600183019081549260018401809411610b7e57505092610a84600360609694610b79947f10c54acc3f1789aedee42a531c48033a30ae957fbc6103d413ae56ae98bad7e2999755426002820155015491611d3f565b610a8a565b634e487b7160e01b8a526011905288fd5b50634e487b7160e01b88526011825287fd5b845162461bcd60e51b815260208189015260098184015268139bdd081d985d5b1d60ba1b6044820152606490fd5b83915034610182576020366003190112610182576001600160a01b03610bf36113a2565b16908115610c105760208480858581526003845220549051908152f35b608490602085519162461bcd60e51b8352820152602960248201527f4552433732313a2061646472657373207a65726f206973206e6f7420612076616044820152683634b21037bbb732b960b91b6064820152fd5b50503461018257816003193601126101825780519082600b54610c87816114af565b80855291600191808316908115610cfe5750600114610cb3575b5050506106748261045594038361143a565b9450600b8552600080516020611f798339815191525b828610610ce6575050506106748260206104559582010194610ca1565b80546020878701810191909152909501948101610cc9565b61045597508693506020925061067494915060ff191682840152151560051b82010194610ca1565b90503461024e57602036600319011261024e57610d416113a2565b610d496114e9565b610d51611a89565b6001600160a01b0316918215610da1575050600980546001600160a01b031916821790557f161584aed96e7f34998117c9ad67e2d21ff46d2a42775c22b11ed282f3c7b2cd8280a2600160085580f35b906020606492519162461bcd60e51b8352820152600d60248201526c125b9d985b1a59081d985d5b1d609a1b6044820152fd5b8284346104c35760203660031901126104c35750610df46020923561158d565b90516001600160a01b039091168152f35b505034610182578160031936011261018257602090600a549051908152f35b83915034610182576020928360031936011261024e5767ffffffffffffffff8235818111610622573660238201121561062257610e6a9036906024818701359101611478565b92610e736114e9565b610e7b611a89565b8351918211610ff55750610e90600b546114af565b601f8111610fa5575b5084601f8211600114610f11579181610efb928697947f6741b2fc379fad678116fe3d4d4b9a1a184ab53ba36b86ad0fa66340b1ab41ad9791610f06575b508160011b916000199060031b1c191617600b555b5192828493845283019061137d565b0390a1600160085580f35b905085015188610ed7565b600b8552600080516020611f7983398151915290601f198316865b818110610f8e5750927f6741b2fc379fad678116fe3d4d4b9a1a184ab53ba36b86ad0fa66340b1ab41ad9697949260019282610efb9610610f75575b5050811b01600b55610eec565b87015160001960f88460031b161c191690558880610f68565b91928860018192868a015181550194019201610f2c565b600b8552600080516020611f79833981519152601f830160051c810191878410610feb575b601f0160051c01905b818110610fe05750610e99565b858155600101610fd3565b9091508190610fca565b634e487b7160e01b855260419052602484fd5b5050346101825761054861054d9161101f366113d3565b9192519261102c84611408565b86845261053861053384336116ca565b5050346101825760203660031901126101825760209160ff9082906001600160a01b036110676113a2565b168152600d855220541690519015158152f35b83346104c35761054d61108c366113d3565b9161109a61053384336116ca565b611792565b90503461024e578160031936011261024e576110b96113a2565b6024359290916001600160a01b03919082806110d48761158d565b169416938085146111c0578033149081156111a1575b501561113957848652602052842080546001600160a01b031916831790556111118361158d565b167f8c5be1e5ebec7d5bd14f71427d1e84f3dd0314c0f7b2291e5b200ac8c7c3b9258480a480f35b6020608492519162461bcd60e51b8352820152603d60248201527f4552433732313a20617070726f76652063616c6c6572206973206e6f7420746f60448201527f6b656e206f776e6572206f7220617070726f76656420666f7220616c6c0000006064820152fd5b90508652600560205281862033875260205260ff8287205416386110ea565b506020608492519162461bcd60e51b8352820152602160248201527f4552433732313a20617070726f76616c20746f2063757272656e74206f776e656044820152603960f91b6064820152fd5b8284346104c35760203660031901126104c35750610df4602092356115b3565b50503461018257816003193601126101825780519082805461124e816114af565b80855291600191808316908115610cfe5750600114611279575050506106748261045594038361143a565b80809650527f290decd9548b62a8d60345a988386fc84ba6bc95484008f6362f93160ef3e5635b8286106112bd575050506106748260206104559582010194610ca1565b805460208787018101919091529095019481016112a0565b84913461024e57602036600319011261024e573563ffffffff60e01b811680910361024e5760209250632483248360e11b8114908115611317575b5015158152f35b6380ac58cd60e01b811491508115611349575b8115611338575b5083611310565b6301ffc9a760e01b14905083611331565b635b5e139f60e01b8114915061132a565b60005b83811061136d5750506000910152565b818101518382015260200161135d565b906020916113968151809281855285808601910161135a565b601f01601f1916010190565b600435906001600160a01b03821682036113b857565b600080fd5b602435906001600160a01b03821682036113b857565b60609060031901126113b8576001600160a01b039060043582811681036113b8579160243590811681036113b8579060443590565b6020810190811067ffffffffffffffff82111761142457604052565b634e487b7160e01b600052604160045260246000fd5b90601f8019910116810190811067ffffffffffffffff82111761142457604052565b67ffffffffffffffff811161142457601f01601f191660200190565b9291926114848261145c565b91611492604051938461143a565b8294818452818301116113b8578281602093846000960137010152565b90600182811c921680156114df575b60208310146114c957565b634e487b7160e01b600052602260045260246000fd5b91607f16916114be565b6007546001600160a01b031633036114fd57565b606460405162461bcd60e51b815260206004820152602060248201527f4f776e61626c653a2063616c6c6572206973206e6f7420746865206f776e65726044820152fd5b1561154857565b60405162461bcd60e51b815260206004820152601860248201527f4552433732313a20696e76616c696420746f6b656e20494400000000000000006044820152606490fd5b6000908152600260205260409020546001600160a01b03166115b0811515611541565b90565b6000818152600260205260409020546115d6906001600160a01b03161515611541565b6000908152600460205260409020546001600160a01b031690565b156115f857565b60405162461bcd60e51b815260206004820152602d60248201527f4552433732313a2063616c6c6572206973206e6f7420746f6b656e206f776e6560448201526c1c881bdc88185c1c1c9bdd9959609a1b6064820152608490fd5b60809060208152603260208201527f4552433732313a207472616e7366657220746f206e6f6e20455243373231526560408201527131b2b4bb32b91034b6b83632b6b2b73a32b960711b60608201520190565b156116ad57565b60405162461bcd60e51b8152806116c660048201611653565b0390fd5b906001600160a01b0380806116de8461158d565b16931691838314938415611711575b5083156116fb575b50505090565b611707919293506115b3565b16143880806116f5565b909350600052600560205260406000208260005260205260ff6040600020541692386116ed565b1561173f57565b60405162461bcd60e51b815260206004820152602560248201527f4552433732313a207472616e736665722066726f6d20696e636f72726563742060448201526437bbb732b960d91b6064820152608490fd5b906117ba916117a08461158d565b6001600160a01b0393918416928492909183168414611738565b169182156118995781158015611891575b1561186057816117e5916117de8661158d565b1614611738565b7fddf252ad1be2c89b69c2b068fc378daa952ba7f163c4a11628f55a4df523b3ef60008481526004602052604081206001600160601b0360a01b9081815416905583825260036020526040822060001981540190558482526040822060018154019055858252600260205284604083209182541617905580a4565b60405162461bcd60e51b815260206004820152600960248201526814dbdd5b189bdd5b9960ba1b6044820152606490fd5b5060006117cb565b60405162461bcd60e51b8152602060048201526024808201527f4552433732313a207472616e7366657220746f20746865207a65726f206164646044820152637265737360e01b6064820152608490fd5b3d15611915573d906118fb8261145c565b91611909604051938461143a565b82523d6000602084013e565b606090565b909190803b15611a03576020604051809281630a85bd0160e11b96878252336004830152816119636000988993846024850152604484015260806064840152608483019061137d565b03926001600160a01b03165af1908290826119bb575b50506119ad576119876118ea565b805190816119a85760405162461bcd60e51b8152806116c660048201611653565b602001fd5b6001600160e01b0319161490565b909192506020813d82116119fb575b816119d76020938361143a565b810103126101825751906001600160e01b0319821682036104c35750903880611979565b3d91506119ca565b505050600190565b919290803b15611a8057604051630a85bd0160e11b8082523360048301526001600160a01b03948516602483015260448201959095526080606482015291602091839182908190611a6090608483019061137d565b03916000968791165af1908290826119bb5750506119ad576119876118ea565b50505050600190565b600260085414611a9a576002600855565b60405162461bcd60e51b815260206004820152601f60248201527f5265656e7472616e637947756172643a207265656e7472616e742063616c6c006044820152606490fd5b6000198114611aee5760010190565b634e487b7160e01b600052601160045260246000fd5b15611b0b57565b60405162461bcd60e51b815260206004820152601c60248201527f4552433732313a20746f6b656e20616c7265616479206d696e746564000000006044820152606490fd5b6000818152600260205260409020549192916001600160a01b031615611ce35760009080825260209160068352604081209085519067ffffffffffffffff8211611ccf57611b9e83546114af565b601f8111611c8c575b508490601f8311600114611c0857907ff8e1a15aba9398e019f0b49df1a4fde98ee17ae345cb5f6b5e2c27f5033e8ce7969783611bfd575b50508160011b916000199060031b1c19161790555b604051908152a1565b015190503880611bdf565b9196601f198816848452868420935b818110611c7557509160019391897ff8e1a15aba9398e019f0b49df1a4fde98ee17ae345cb5f6b5e2c27f5033e8ce7999a9410611c5c575b505050811b019055611bf4565b015160001960f88460031b161c19169055388080611c4f565b929387600181928786015181550195019301611c17565b838252858220601f840160051c810191878510611cc5575b601f0160051c01905b818110611cba5750611ba7565b828155600101611cad565b9091508190611ca4565b634e487b7160e01b81526041600452602490fd5b60405162461bcd60e51b815260206004820152602e60248201527f45524337323155524953746f726167653a2055524920736574206f66206e6f6e60448201526d32bc34b9ba32b73a103a37b5b2b760911b6064820152608490fd5b6040516060810181811067ffffffffffffffff8211176114245760405260288152602080820192604036853760005b60148110611e3857505060405180936000600b5493611d8c856114af565b600195808716908115611e1b5750600114611dce575b5050611dbe6115b095602f60f81b83525180938684019061135a565b0103601e1981018452018261143a565b90959150600b600052600080516020611f798339815191526000905b828210611e055750506115b095611dbe918501019195611da2565b8054898301890152889550908701908601611dea565b60ff19168684015250801515028401019050611dbe6115b0611da2565b601390808203918211611aee57600382901b916001600160fd1b03811603611aee5760ff808311611aee5760019283811b15611ef9576001600160a01b038516901c60f0811682821603918211611aee57611e9b9060f41b600f60f81b16611f36565b82841b916001600160ff1b0384168403611aee57611ed39160001a611ec0848a611f0f565b5360f81b6001600160f81b031916611f36565b928101809111611aee57611eee611ef49360001a9187611f0f565b53611adf565b611d6e565b634e487b7160e01b600052601260045260246000fd5b908151811015611f20570160200190565b634e487b7160e01b600052603260045260246000fd5b60f81c600a811015611f5d5760300160ff8111611aee5760f81b6001600160f81b03191690565b60570160ff8111611aee5760f81b6001600160f81b0319169056fe0175b7a638427703f0dbe7bb9bbf987a2551717b34e79f33b5b1008d1fa01db9a26469706673582212202afe85579e754ba03d0dc111cbc18821fbf78467534ac7c216b7f1541acf550064736f6c63430008140033",
  "devdoc": {
    "events": {
      "Approval(address,address,uint256)": {
        "details": "Emitted when `owner` enables `approved` to manage the `tokenId` token."
      },
      "ApprovalForAll(address,address,bool)": {
        "details": "Emitted when `owner` enables or disables (`approved`) `operator` to manage all of its assets."
      },
      "BatchMetadataUpdate(uint256,uint256)": {
        "details": "This event emits when the metadata of a range of tokens is changed. So that the third-party platforms such as NFT market could timely update the images and related attributes of the NFTs."
      },
      "MetadataUpdate(uint256)": {
        "details": "This event emits when the metadata of a token is changed. So that the third-party platforms such as NFT market could timely update the images and related attributes of the NFT."
      },
      "Transfer(address,address,uint256)": {
        "details": "Emitted when `tokenId` token is transferred from `from` to `to`."
      }
    },
    "kind": "dev",
    "methods": {
      "approve(address,uint256)": {
        "details": "See {IERC721-approve}."
      },
      "balanceOf(address)": {
        "details": "See {IERC721-balanceOf}."
      },
      "getApproved(uint256)": {
        "details": "See {IERC721-getApproved}."
      },
      "isApprovedForAll(address,address)": {
        "details": "See {IERC721-isApprovedForAll}."
      },
      "name()": {
        "details": "See {IERC721Metadata-name}."
      },
      "owner()": {
        "details": "Returns the address of the current owner."
      },
      "ownerOf(uint256)": {
        "details": "See {IERC721-ownerOf}."
      },
      "renounceOwnership()": {
        "details": "Leaves the contract without owner. It will not be possible to call `onlyOwner` functions. Can only be called by the current owner. NOTE: Renouncing ownership will leave the contract without an owner, thereby disabling any functionality that is only available to the owner."
      },
      "safeTransferFrom(address,address,uint256)": {
        "details": "See {IERC721-safeTransferFrom}."
      },
      "safeTransferFrom(address,address,uint256,bytes)": {
        "details": "See {IERC721-safeTransferFrom}."
      },
      "setApprovalForAll(address,bool)": {
        "details": "See {IERC721-setApprovalForAll}."
      },
      "supportsInterface(bytes4)": {
        "details": "See {IERC165-supportsInterface}"
      },
      "symbol()": {
        "details": "See {IERC721Metadata-symbol}."
      },
      "tokenURI(uint256)": {
        "details": "See {IERC721Metadata-tokenURI}."
      },
      "transferFrom(address,address,uint256)": {
        "details": "See {IERC721-transferFrom}."
      },
      "transferOwnership(address)": {
        "details": "Transfers ownership of the contract to a new account (`newOwner`). Can only be called by the current owner."
      }
    },
    "version": 1
  },
  "userdoc": {
    "kind": "user",
    "methods": {},
    "version": 1
  },
  "storageLayout": {
    "storage": [
      {
        "astId": 921,
        "contract": "contracts/DonationSBT.sol:DonationSBT",
        "label": "_name",
        "offset": 0,
        "slot": "0",
        "type": "t_string_storage"
      },
      {
        "astId": 923,
        "contract": "contracts/DonationSBT.sol:DonationSBT",
        "label": "_symbol",
        "offset": 0,
        "slot": "1",
        "type": "t_string_storage"
      },
      {
        "astId": 927,
        "contract": "contracts/DonationSBT.sol:DonationSBT",
        "label": "_owners",
        "offset": 0,
        "slot": "2",
        "type": "t_mapping(t_uint256,t_address)"
      },
      {
        "astId": 931,
        "contract": "contracts/DonationSBT.sol:DonationSBT",
        "label": "_balances",
        "offset": 0,
        "slot": "3",
        "type": "t_mapping(t_address,t_uint256)"
      },
      {
        "astId": 935,
        "contract": "contracts/DonationSBT.sol:DonationSBT",
        "label": "_tokenApprovals",
        "offset": 0,
        "slot": "4",
        "type": "t_mapping(t_uint256,t_address)"
      },
      {
        "astId": 941,
        "contract": "contracts/DonationSBT.sol:DonationSBT",
        "label": "_operatorApprovals",
        "offset": 0,
        "slot": "5",
        "type": "t_mapping(t_address,t_mapping(t_address,t_bool))"
      },
      {
        "astId": 1972,
        "contract": "contracts/DonationSBT.sol:DonationSBT",
        "label": "_tokenURIs",
        "offset": 0,
        "slot": "6",
        "type": "t_mapping(t_uint256,t_string_storage)"
      },
      {
        "astId": 7,
        "contract": "contracts/DonationSBT.sol:DonationSBT",
        "label": "_owner",
        "offset": 0,
        "slot": "7",
        "type": "t_address"
      },
      {
        "astId": 151,
        "contract": "contracts/DonationSBT.sol:DonationSBT",
        "label": "_status",
        "offset": 0,
        "slot": "8",
        "type": "t_uint256"
      },
      {
        "astId": 3749,
        "contract": "contracts/DonationSBT.sol:DonationSBT",
        "label": "vault",
        "offset": 0,
        "slot": "9",
        "type": "t_address"
      },
      {
        "astId": 3751,
        "contract": "contracts/DonationSBT.sol:DonationSBT",
        "label": "nextId",
        "offset": 0,
        "slot": "10",
        "type": "t_uint256"
      },
      {
        "astId": 3753,
        "contract": "contracts/DonationSBT.sol:DonationSBT",
        "label": "baseURI",
        "offset": 0,
        "slot": "11",
        "type": "t_string_storage"
      },
      {
        "astId": 3767,
        "contract": "contracts/DonationSBT.sol:DonationSBT",
        "label": "donors",
        "offset": 0,
        "slot": "12",
        "type": "t_mapping(t_address,t_struct(DonorData)3762_storage)"
      },
      {
        "astId": 3771,
        "contract": "contracts/DonationSBT.sol:DonationSBT",
        "label": "hasMinted",
        "offset": 0,
        "slot": "13",
        "type": "t_mapping(t_address,t_bool)"
      }
    ],
    "types": {
      "t_address": {
        "encoding": "inplace",
        "label": "address",
        "numberOfBytes": "20"
      },
      "t_bool": {
        "encoding": "inplace",
        "label": "bool",
        "numberOfBytes": "1"
      },
      "t_mapping(t_address,t_bool)": {
        "encoding": "mapping",
        "key": "t_address",
        "label": "mapping(address => bool)",
        "numberOfBytes": "32",
        "value": "t_bool"
      },
      "t_mapping(t_address,t_mapping(t_address,t_bool))": {
        "encoding": "mapping",
        "key": "t_address",
        "label": "mapping(address => mapping(address => bool))",
        "numberOfBytes": "32",
        "value": "t_mapping(t_address,t_bool)"
      },
      "t_mapping(t_address,t_struct(DonorData)3762_storage)": {
        "encoding": "mapping",
        "key": "t_address",
        "label": "mapping(address => struct DonationSBT.DonorData)",
        "numberOfBytes": "32",
        "value": "t_struct(DonorData)3762_storage"
      },
      "t_mapping(t_address,t_uint256)": {
        "encoding": "mapping",
        "key": "t_address",
        "label": "mapping(address => uint256)",
        "numberOfBytes": "32",
        "value": "t_uint256"
      },
      "t_mapping(t_uint256,t_address)": {
        "encoding": "mapping",
        "key": "t_uint256",
        "label": "mapping(uint256 => address)",
        "numberOfBytes": "32",
        "value": "t_address"
      },
      "t_mapping(t_uint256,t_string_storage)": {
        "encoding": "mapping",
        "key": "t_uint256",
        "label": "mapping(uint256 => string)",
        "numberOfBytes": "32",
        "value": "t_string_storage"
      },
      "t_string_storage": {
        "encoding": "bytes",
        "label": "string",
        "numberOfBytes": "32"
      },
      "t_struct(DonorData)3762_storage": {
        "encoding": "inplace",
        "label": "struct DonationSBT.DonorData",
        "members": [
          {
            "astId": 3755,
            "contract": "contracts/DonationSBT.sol:DonationSBT",
            "label": "totalDonated",
            "offset": 0,
            "slot": "0",
            "type": "t_uint256"
          },
          {
            "astId": 3757,
            "contract": "contracts/DonationSBT.sol:DonationSBT",
            "label": "donationCount",
            "offset": 0,
            "slot": "1",
            "type": "t_uint256"
          },
          {
            "astId": 3759,
            "contract": "contracts/DonationSBT.sol:DonationSBT",
            "label": "lastDonation",
            "offset": 0,
            "slot": "2",
            "type": "t_uint256"
          },
          {
            "astId": 3761,
            "contract": "contracts/DonationSBT.sol:DonationSBT",
            "label": "tokenId",
            "offset": 0,
            "slot": "3",
            "type": "t_uint256"
          }
        ],
        "numberOfBytes": "128"
      },
      "t_uint256": {
        "encoding": "inplace",
        "label": "uint256",
        "numberOfBytes": "32"
      }
    }
  }
}