{
  "address": "0x678dFd77b60aeA0A16Be99859Ecb547d3a6f554E",
  "abi": [
    {
      "inputs": [
        {
          "internalType": "address",
          "name": "_usdc",
          "type": "address"
        }
      ],
      "stateMutability": "nonpayable",
      "type": "constructor"
    },
    {
      "anonymous": false,
      "inputs": [
        {
          "indexed": true,
          "internalType": "address",
          "name": "donor",
          "type": "address"
        },
        {
          "indexed": false,
          "internalType": "uint256",
          "name": "amount",
          "type": "uint256"
        },
        {
          "indexed": false,
          "internalType": "uint256",
          "name": "timestamp",
          "type": "uint256"
        }
      ],
      "name": "Donated",
      "type": "event"
    },
    {
      "anonymous": false,
      "inputs": [
        {
          "indexed": false,
          "internalType": "uint256",
          "name": "amount",
          "type": "uint256"
        }
      ],
      "name": "ETHRecovered",
      "type": "event"
    },
    {
      "anonymous": false,
      "inputs": [
        {
          "indexed": true,
          "internalType": "address",
          "name": "newManager",
          "type": "address"
        }
      ],
      "name": "ManagerUpdated",
      "type": "event"
    },
    {
      "anonymous": false,
      "inputs": [
        {
          "indexed": true,
          "internalType": "address",
          "name": "newVault",
          "type": "address"
        }
      ],
      "name": "MorphoVaultUpdated",
      "type": "event"
    },
    {
      "anonymous": false,
      "inputs": [
        {
          "indexed": true,
          "internalType": "address",
          "name": "previousOwner",
          "type": "address"
        },
        {
          "indexed": true,
          "internalType": "address",
          "name": "newOwner",
          "type": "address"
        }
      ],
      "name": "OwnershipTransferred",
      "type": "event"
    },
    {
      "anonymous": false,
      "inputs": [
        {
          "indexed": true,
          "internalType": "address",
          "name": "patient",
          "type": "address"
        },
        {
          "indexed": false,
          "internalType": "uint256",
          "name": "amount",
          "type": "uint256"
        }
      ],
      "name": "Released",
      "type": "event"
    },
    {
      "anonymous": false,
      "inputs": [
        {
          "indexed": true,
          "internalType": "address",
          "name": "newSBT",
          "type": "address"
        }
      ],
      "name": "SBTUpdated",
      "type": "event"
    },
    {
      "anonymous": false,
      "inputs": [
        {
          "indexed": true,
          "internalType": "address",
          "name": "token",
          "type": "address"
        },
        {
          "indexed": false,
          "internalType": "uint256",
          "name": "amount",
          "type": "uint256"
        }
      ],
      "name": "TokensRecovered",
      "type": "event"
    },
    {
      "inputs": [],
      "name": "SBT",
      "outputs": [
        {
          "internalType": "contract IDonationSBT",
          "name": "",
          "type": "address"
        }
      ],
      "stateMutability": "view",
      "type": "function"
    },
    {
      "inputs": [],
      "name": "USDC",
      "outputs": [
        {
          "internalType": "contract IERC20",
          "name": "",
          "type": "address"
        }
      ],
      "stateMutability": "view",
      "type": "function"
    },
    {
      "inputs": [],
      "name": "currentVaultBalance",
      "outputs": [
        {
          "internalType": "uint256",
          "name": "",
          "type": "uint256"
        }
      ],
      "stateMutability": "view",
      "type": "function"
    },
    {
      "inputs": [
        {
          "internalType": "uint256",
          "name": "amount",
          "type": "uint256"
        }
      ],
      "name": "donate",
      "outputs": [],
      "stateMutability": "nonpayable",
      "type": "function"
    },
    {
      "inputs": [
        {
          "internalType": "address",
          "name": "",
          "type": "address"
        }
      ],
      "name": "donorTotal",
      "outputs": [
        {
          "internalType": "uint256",
          "name": "",
          "type": "uint256"
        }
      ],
      "stateMutability": "view",
      "type": "function"
    },
    {
      "inputs": [],
      "name": "getAllDonors",
      "outputs": [
        {
          "internalType": "address[]",
          "name": "",
          "type": "address[]"
        }
      ],
      "stateMutability": "view",
      "type": "function"
    },
    {
      "inputs": [],
      "name": "getDonorCount",
      "outputs": [
        {
          "internalType": "uint256",
          "name": "",
          "type": "uint256"
        }
      ],
      "stateMutability": "view",
      "type": "function"
    },
    {
      "inputs": [],
      "name": "getLivesChanged",
      "outputs": [
        {
          "internalType": "uint256",
          "name": "",
          "type": "uint256"
        }
      ],
      "stateMutability": "view",
      "type": "function"
    },
    {
      "inputs": [],
      "name": "getTotalDonated",
      "outputs": [
        {
          "internalType": "uint256",
          "name": "",
          "type": "uint256"
        }
      ],
      "stateMutability": "view",
      "type": "function"
    },
    {
      "inputs": [],
      "name": "getTotalDonors",
      "outputs": [
        {
          "internalType": "uint256",
          "name": "",
          "type": "uint256"
        }
      ],
      "stateMutability": "view",
      "type": "function"
    },
    {
      "inputs": [],
      "name": "getTotalReleased",
      "outputs": [
        {
          "internalType": "uint256",
          "name": "",
          "type": "uint256"
        }
      ],
      "stateMutability": "view",
      "type": "function"
    },
    {
      "inputs": [
        {
          "internalType": "address",
          "name": "donor",
          "type": "address"
        }
      ],
      "name": "getVaultSummary",
      "outputs": [
        {
          "internalType": "uint256",
          "name": "totalRaised",
          "type": "uint256"
        },
        {
          "internalType": "uint256",
          "name": "donorBalance",
          "type": "uint256"
        },
        {
          "internalType": "uint256",
          "name": "vaultBalance",
          "type": "uint256"
        }
      ],
      "stateMutability": "view",
      "type": "function"
    },
    {
      "inputs": [],
      "name": "getYieldEarned",
      "outputs": [
        {
          "internalType": "uint256",
          "name": "yield",
          "type": "uint256"
        }
      ],
      "stateMutability": "view",
      "type": "function"
    },
    {
      "inputs": [
        {
          "internalType": "address",
          "name": "",
          "type": "address"
        }
      ],
      "name": "hasDonated",
      "outputs": [
        {
          "internalType": "bool",
          "name": "",
          "type": "bool"
        }
      ],
      "stateMutability": "view",
      "type": "function"
    },
    {
      "inputs": [],
      "name": "manager",
      "outputs": [
        {
          "internalType": "address",
          "name": "",
          "type": "address"
        }
      ],
      "stateMutability": "view",
      "type": "function"
    },
    {
      "inputs": [],
      "name": "morphoVault",
      "outputs": [
        {
          "internalType": "contract IMorphoVault",
          "name": "",
          "type": "address"
        }
      ],
      "stateMutability": "view",
      "type": "function"
    },
    {
      "inputs": [],
      "name": "owner",
      "outputs": [
        {
          "internalType": "address",
          "name": "",
          "type": "address"
        }
      ],
      "stateMutability": "view",
      "type": "function"
    },
    {
      "inputs": [
        {
          "internalType": "address",
          "name": "tokenAddress",
          "type": "address"
        },
        {
          "internalType": "uint256",
          "name": "amount",
          "type": "uint256"
        }
      ],
      "name": "recoverERC20",
      "outputs": [],
      "stateMutability": "nonpayable",
      "type": "function"
    },
    {
      "inputs": [
        {
          "internalType": "uint256",
          "name": "amount",
          "type": "uint256"
        }
      ],
      "name": "recoverETH",
      "outputs": [],
      "stateMutability": "nonpayable",
      "type": "function"
    },
    {
      "inputs": [
        {
          "internalType": "address",
          "name": "patient",
          "type": "address"
        },
        {
          "internalType": "uint256",
          "name": "amount",
          "type": "uint256"
        }
      ],
      "name": "releaseToPatient",
      "outputs": [],
      "stateMutability": "nonpayable",
      "type": "function"
    },
    {
      "inputs": [],
      "name": "renounceOwnership",
      "outputs": [],
      "stateMutability": "nonpayable",
      "type": "function"
    },
    {
      "inputs": [
        {
          "internalType": "address",
          "name": "_manager",
          "type": "address"
        }
      ],
      "name": "setManager",
      "outputs": [],
      "stateMutability": "nonpayable",
      "type": "function"
    },
    {
      "inputs": [
        {
          "internalType": "address",
          "name": "_vault",
          "type": "address"
        }
      ],
      "name": "setMorphoVault",
      "outputs": [],
      "stateMutability": "nonpayable",
      "type": "function"
    },
    {
      "inputs": [
        {
          "internalType": "address",
          "name": "_sbt",
          "type": "address"
        }
      ],
      "name": "setSBT",
      "outputs": [],
      "stateMutability": "nonpayable",
      "type": "function"
    },
    {
      "inputs": [],
      "name": "sweepUSDCToVault",
      "outputs": [],
      "stateMutability": "nonpayable",
      "type": "function"
    },
    {
      "inputs": [],
      "name": "totalDonated",
      "outputs": [
        {
          "internalType": "uint256",
          "name": "",
          "type": "uint256"
        }
      ],
      "stateMutability": "view",
      "type": "function"
    },
    {
      "inputs": [],
      "name": "totalDonors",
      "outputs": [
        {
          "internalType": "uint256",
          "name": "",
          "type": "uint256"
        }
      ],
      "stateMutability": "view",
      "type": "function"
    },
    {
      "inputs": [],
      "name": "totalLivesChanged",
      "outputs": [
        {
          "internalType": "uint256",
          "name": "",
          "type": "uint256"
        }
      ],
      "stateMutability": "view",
      "type": "function"
    },
    {
      "inputs": [],
      "name": "totalReleased",
      "outputs": [
        {
          "internalType": "uint256",
          "name": "",
          "type": "uint256"
        }
      ],
      "stateMutability": "view",
      "type": "function"
    },
    {
      "inputs": [
        {
          "internalType": "address",
          "name": "newOwner",
          "type": "address"
        }
      ],
      "name": "transferOwnership",
      "outputs": [],
      "stateMutability": "nonpayable",
      "type": "function"
    },
    {
      "stateMutability": "payable",
      "type": "receive"
    }
  ],
  "transactionHash": "0xd229f3607f4ae0c125c80f1d536733a2d235e01f24b37d999b98ed8278df3de6",
  "args": [
    "0x94d07C7Aa3F8910ACeF21300098DA9171d06220C"
  ],
  "numDeployments": 1,
  "solcInputHash": "3b45d1f6b408afa2443d278026f50e60",
  "bytecode": "0x60a03461011457601f61150038819003918201601f19168301916001600160401b038311848410176101195780849260209460405283398101031261011457516001600160a01b0380821691829003610114576000543360018060a01b0319821617600055604051913391167f8be0079c531659141344cd1fd0a4f28419497f9722a3daafe3b4186f6b6457e0600080a36001805581156100d257506080526040516113d0908161013082396080518181816102ac01528181610920015281816109df01528181610b850152610eee0152f35b62461bcd60e51b815260206004820152601460248201527f496e76616c6964205553444320616464726573730000000000000000000000006044820152606490fd5b600080fd5b634e487b7160e01b600052604160045260246000fdfe60806040818152600480361015610021575b505050361561001f57600080fd5b005b600092833560e01c908162b370441461108a5750806317294a111461104c57806325c302e41461053657806330aef20314610e1857806332e1e4d514610de057806334640dea14610d8f578063481c6a7514610d685780634b14c0ef14610555578063513f299814610b1d5780635169379c14610d3f57806369bc2f1e14610d20578063715018a614610cc657806371a4b1e314610ca95780638501de0114610c855780638724324d14610b3c57806387b5eb8b14610b1d5780638980f11f14610a0e57806389a30271146109ca5780638da5cb5b146109a25780638f9fe9c31461089f57806398e36b04146107da578063994b75481461075c578063a323a74814610733578063d0ebdbe714610688578063d333555314610593578063d56e306814610574578063e33b7de314610555578063e615a71214610536578063f14faf6f146102425763f2fde38b03610011573461023e57602036600319011261023e5761018c6110a6565b906101956110c1565b6001600160a01b039182169283156101ec575050600054826bffffffffffffffffffffffff60a01b821617600055167f8be0079c531659141344cd1fd0a4f28419497f9722a3daafe3b4186f6b6457e0600080a380f35b906020608492519162461bcd60e51b8352820152602660248201527f4f776e61626c653a206e6577206f776e657220697320746865207a65726f206160448201526564647265737360d01b6064820152fd5b8280fd5b50919034610532576020928360031936011261023e578035610262611119565b61026d8115156111fd565b6003546001600160a01b03906102869082161515611237565b83516323b872dd60e01b81523384820152306024820152604481018390528681606481897f000000000000000000000000000000000000000000000000000000000000000087165af180156104fb57610505575b506003548451636e553f6560e01b815284810184815230602082015290918891839185169082908a90829060400103925af180156104fb579087916104d2575b5050338552600a8652838520805460ff81161561041f575b505084953386526009815284862061034b848254611274565b905561035983600554611274565b60055584519083825242908201527f4928895ba6723e8e27b15f32e4c3054a1b6c7f8c03f133558d6fa42b3928d14c853392a260025416908161039f575b846001805580f35b813b1561041b578351633865d7cb60e11b81523384820190815260208101929092529491859182908490829060400103925af18015610411576103e5575b808493610397565b67ffffffffffffffff83116103fe5750523880806103dd565b634e487b7160e01b845260419052602483fd5b82513d86823e3d90fd5b8480fd5b60019060ff1916179055600654600181018091116104bf57600655600b5495680100000000000000008710156104ac576001870180600b55871015610499577f0175b7a638427703f0dbe7bb9bbf987a2551717b34e79f33b5b1008d1fa01db990960180546001600160a01b031916331790558438610332565b634e487b7160e01b865260328452602486fd5b634e487b7160e01b865260418452602486fd5b634e487b7160e01b865260118452602486fd5b813d83116104f4575b6104e581836111ad565b8101031261041b57853861031a565b503d6104db565b85513d88823e3d90fd5b61052490873d891161052b575b61051c81836111ad565b8101906111e5565b50386102da565b503d610512565b5080fd5b5050346105325781600319360112610532576020906006549051908152f35b5050346105325781600319360112610532576020906008549051908152f35b5050346105325781600319360112610532576020906005549051908152f35b50903461023e57602036600319011261023e578135916105b16110c1565b6105b9611119565b838080808660018060a01b038254165af13d15610683573d67ffffffffffffffff8111610670578351906105f7601f8201601f1916602001836111ad565b81528560203d92013e5b1561063857507f0296f2c4dbc8c0e53c0ffab63f84aeebd5c28aa143475a37346bf15ac003f3279160209151908152a16001805580f35b6020606492519162461bcd60e51b83528201526013602482015272115512081d1c985b9cd9995c8819985a5b1959606a1b6044820152fd5b634e487b7160e01b865260418352602486fd5b610601565b503461023e57602036600319011261023e576106a26110a6565b6106aa6110c1565b6106b2611119565b6001600160a01b03169182156106fe575080546001600160a01b031916821790557f2c1c11af44aa5608f1dca38c00275c30ea091e02417d36e70e9a1538689c433d8280a26001805580f35b906020606492519162461bcd60e51b8352820152600f60248201526e24b73b30b634b21036b0b730b3b2b960891b6044820152fd5b50503461053257816003193601126105325760025490516001600160a01b039091168152602090f35b83346107d75760203660031901126107d7576107766110a6565b61077e6110c1565b610786611119565b6001600160a01b031661079a81151561116f565b600280546001600160a01b031916821790557f610b8422aaabfef697e1d7d588839ea0e67b0c0cf0a6dde0b4f1f780e10e56028280a26001805580f35b80fd5b8284346107d757806003193601126107d757908051918290600b549182855260208095018093600b84527f0175b7a638427703f0dbe7bb9bbf987a2551717b34e79f33b5b1008d1fa01db990845b818110610882575050508161083e9103826111ad565b83519485948186019282875251809352850193925b82811061086257505050500390f35b83516001600160a01b031685528695509381019392810192600101610853565b82546001600160a01b031684529288019260019283019201610828565b503461023e57602036600319011261023e5760449160206108be6110a6565b926108c76110c1565b6108cf611119565b6001600160a01b039384169485916108e883151561116f565b826bffffffffffffffffffffffff60a01b6003541617600355878551968794859363095ea7b360e01b855284015260001960248401527f0000000000000000000000000000000000000000000000000000000000000000165af1908115610999575061097b575b507fde6abfe1af01e5fdf2126f1b21ace40370d27c6289b5b19410366fd761f6f3a38280a26001805580f35b6109929060203d811161052b5761051c81836111ad565b503861094f565b513d85823e3d90fd5b505034610532578160031936011261053257905490516001600160a01b039091168152602090f35b505034610532578160031936011261053257517f00000000000000000000000000000000000000000000000000000000000000006001600160a01b03168152602090f35b503461023e578160031936011261023e57610a276110a6565b9160243591610a346110c1565b610a3c611119565b6001600160a01b03938416938415610aea578554835163a9059cbb60e01b815291166001600160a01b03169181019182526020808301859052909182908190604001038188885af18015610ae057917f46d2e6e71fc567877b817ff3d940571f989d4ee4d40f2b70806d36e738feef6f9391602093610ac3575b5051908152a26001805580f35b610ad990843d811161052b5761051c81836111ad565b5038610ab6565b82513d87823e3d90fd5b506020606492519162461bcd60e51b8352820152600d60248201526c24b73b30b634b2103a37b5b2b760991b6044820152fd5b5050346105325781600319360112610532576020906007549051908152f35b50903461023e578260031936011261023e57610b566110c1565b610b5e611119565b80516370a0823160e01b815230838201526020929091906001600160a01b039084846024817f000000000000000000000000000000000000000000000000000000000000000086165afa938415610c7b578694610c48575b5083151580610c3b575b610bcd575b856001805580f35b6003548351636e553f6560e01b8152918201948552306020860152909385928592169082908890829060400103925af19081156109995750610c12575b808080610bc5565b813d8311610c34575b610c2581836111ad565b810103126107d7573880610c0a565b503d610c1b565b5081600354161515610bc0565b9093508481813d8311610c74575b610c6081836111ad565b81010312610c7057519238610bb6565b8580fd5b503d610c56565b83513d88823e3d90fd5b505034610532578160031936011261053257602090610ca2611297565b9051908152f35b505034610532578160031936011261053257602090610ca2611331565b83346107d757806003193601126107d757610cdf6110c1565b80546001600160a01b03198116825581906001600160a01b03167f8be0079c531659141344cd1fd0a4f28419497f9722a3daafe3b4186f6b6457e08280a380f35b505034610532578160031936011261053257602090600b549051908152f35b50503461053257816003193601126105325760035490516001600160a01b039091168152602090f35b503461023e578260031936011261023e575490516001600160a01b03909116815260209150f35b505034610532576020366003190112610532579081606092610daf6110a6565b6005546001600160a01b039091168452600960205292205490610dd0611331565b9181519384526020840152820152f35b5050346105325760203660031901126105325760209181906001600160a01b03610e086110a6565b1681526009845220549051908152f35b50919034610532578060031936011261053257610e336110a6565b83546001600160a01b03926024359290918416330361101b57610e54611119565b838116938415610fe65790839291610e6e879515156111fd565b806003541691610e7f831515611237565b835192632d182be560e21b8452858a850152306024850152306044850152836064816020998a945af18015610fdc579185918793610fa7575b855163a9059cbb60e01b81526001600160a01b03909116818c0190815260208101939093529350839182908a90829060400103927f0000000000000000000000000000000000000000000000000000000000000000165af18015610f9d57610f80575b5060075460018101809111610f6d577fb21fb52d5749b80f3182f8c6992236b5e5576681880914484d7f4c9b062e619e94959650600755610f5e82600854611274565b60085551908152a26001805580f35b634e487b7160e01b865260118752602486fd5b610f9690843d861161052b5761051c81836111ad565b5038610f1b565b82513d88823e3d90fd5b928092509390933d8311610fd5575b610fc081836111ad565b81010312610fd15783828692610eb8565b8680fd5b503d610fb6565b84513d8a823e3d90fd5b825162461bcd60e51b8152602081890152600f60248201526e125b9d985b1a59081c185d1a595b9d608a1b6044820152606490fd5b815162461bcd60e51b8152602081880152600b60248201526a2737ba1036b0b730b3b2b960a91b6044820152606490fd5b5050346105325760203660031901126105325760209160ff9082906001600160a01b036110776110a6565b168152600a855220541690519015158152f35b8490346105325781600319360112610532576020906005548152f35b600435906001600160a01b03821682036110bc57565b600080fd5b6000546001600160a01b031633036110d557565b606460405162461bcd60e51b815260206004820152602060248201527f4f776e61626c653a2063616c6c6572206973206e6f7420746865206f776e65726044820152fd5b60026001541461112a576002600155565b60405162461bcd60e51b815260206004820152601f60248201527f5265656e7472616e637947756172643a207265656e7472616e742063616c6c006044820152606490fd5b1561117657565b60405162461bcd60e51b815260206004820152600f60248201526e496e76616c6964206164647265737360881b6044820152606490fd5b90601f8019910116810190811067ffffffffffffffff8211176111cf57604052565b634e487b7160e01b600052604160045260246000fd5b908160209103126110bc575180151581036110bc5790565b1561120457565b60405162461bcd60e51b815260206004820152600b60248201526a16995c9bc8185b5bdd5b9d60aa1b6044820152606490fd5b1561123e57565b60405162461bcd60e51b815260206004820152600e60248201526d135bdc9c1a1bc81b9bdd081cd95d60921b6044820152606490fd5b9190820180921161128157565b634e487b7160e01b600052601160045260246000fd5b6003546001600160a01b0316801561132b576020600491604051928380926278744560e21b82525afa90811561131f576000916112ee575b50600554808211156112e75781039081116112815790565b5050600090565b906020823d8211611317575b81611307602093836111ad565b810103126107d7575051386112cf565b3d91506112fa565b6040513d6000823e3d90fd5b50600090565b6003546001600160a01b0316801561132b576020600491604051928380926278744560e21b82525afa90811561131f5760009161136c575090565b906020823d8211611392575b81611385602093836111ad565b810103126107d757505190565b3d915061137856fea2646970667358221220a5aa556a2e3e2035ae72b41ad50bfdb367ca9c270aec2c180a287a801383798d64736f6c63430008140033",
  "devdoc": {
    "kind": "dev",
    "methods": {
      "owner()": {
        "details": "Returns the address of the current owner."
      },
      "renounceOwnership()": {
        "details": "Leaves the contract without owner. It will not be possible to call `onlyOwner` functions. Can only be called by the current owner. NOTE: Renouncing ownership will leave the contract without an owner, thereby disabling any functionality that is only available to the owner."
      },
      "transferOwnership(address)": {
        "details": "Transfers ownership of the contract to a new account (`newOwner`). Can only be called by the current owner."
      }
    },
    "version": 1
  },
  "userdoc": {
    "kind": "user",
    "methods": {},
    "version": 1
  },
  "storageLayout": {
    "storage": [
      {
        "astId": 7,
        "contract": "contracts/DonationVault.sol:DonationVault",
        "label": "_owner",
        "offset": 0,
        "slot": "0",
        "type": "t_address"
      },
      {
        "astId": 151,
        "contract": "contracts/DonationVault.sol:DonationVault",
        "label": "_status",
        "offset": 0,
        "slot": "1",
        "type": "t_uint256"
      },
      {
        "astId": 4289,
        "contract": "contracts/DonationVault.sol:DonationVault",
        "label": "SBT",
        "offset": 0,
        "slot": "2",
        "type": "t_contract(IDonationSBT)4253"
      },
      {
        "astId": 4292,
        "contract": "contracts/DonationVault.sol:DonationVault",
        "label": "morphoVault",
        "offset": 0,
        "slot": "3",
        "type": "t_contract(IMorphoVault)4279"
      },
      {
        "astId": 4294,
        "contract": "contracts/DonationVault.sol:DonationVault",
        "label": "manager",
        "offset": 0,
        "slot": "4",
        "type": "t_address"
      },
      {
        "astId": 4296,
        "contract": "contracts/DonationVault.sol:DonationVault",
        "label": "totalDonated",
        "offset": 0,
        "slot": "5",
        "type": "t_uint256"
      },
      {
        "astId": 4298,
        "contract": "contracts/DonationVault.sol:DonationVault",
        "label": "totalDonors",
        "offset": 0,
        "slot": "6",
        "type": "t_uint256"
      },
      {
        "astId": 4300,
        "contract": "contracts/DonationVault.sol:DonationVault",
        "label": "totalLivesChanged",
        "offset": 0,
        "slot": "7",
        "type": "t_uint256"
      },
      {
        "astId": 4302,
        "contract": "contracts/DonationVault.sol:DonationVault",
        "label": "totalReleased",
        "offset": 0,
        "slot": "8",
        "type": "t_uint256"
      },
      {
        "astId": 4306,
        "contract": "contracts/DonationVault.sol:DonationVault",
        "label": "donorTotal",
        "offset": 0,
        "slot": "9",
        "type": "t_mapping(t_address,t_uint256)"
      },
      {
        "astId": 4310,
        "contract": "contracts/DonationVault.sol:DonationVault",
        "label": "hasDonated",
        "offset": 0,
        "slot": "10",
        "type": "t_mapping(t_address,t_bool)"
      },
      {
        "astId": 4313,
        "contract": "contracts/DonationVault.sol:DonationVault",
        "label": "donorList",
        "offset": 0,
        "slot": "11",
        "type": "t_array(t_address)dyn_storage"
      }
    ],
    "types": {
      "t_address": {
        "encoding": "inplace",
        "label": "address",
        "numberOfBytes": "20"
      },
      "t_array(t_address)dyn_storage": {
        "base": "t_address",
        "encoding": "dynamic_array",
        "label": "address[]",
        "numberOfBytes": "32"
      },
      "t_bool": {
        "encoding": "inplace",
        "label": "bool",
        "numberOfBytes": "1"
      },
      "t_contract(IDonationSBT)4253": {
        "encoding": "inplace",
        "label": "contract IDonationSBT",
        "numberOfBytes": "20"
      },
      "t_contract(IMorphoVault)4279": {
        "encoding": "inplace",
        "label": "contract IMorphoVault",
        "numberOfBytes": "20"
      },
      "t_mapping(t_address,t_bool)": {
        "encoding": "mapping",
        "key": "t_address",
        "label": "mapping(address => bool)",
        "numberOfBytes": "32",
        "value": "t_bool"
      },
      "t_mapping(t_address,t_uint256)": {
        "encoding": "mapping",
        "key": "t_address",
        "label": "mapping(address => uint256)",
        "numberOfBytes": "32",
        "value": "t_uint256"
      },
      "t_uint256": {
        "encoding": "inplace",
        "label": "uint256",
        "numberOfBytes": "32"
      }
    }
  }
}