{
  "address": "0x9BFFb7731fA6d9c28095b2381d18e78684aE0008",
  "abi": [
    {
      "inputs": [
        {
          "internalType": "address",
          "name": "_asset",
          "type": "address"
        }
      ],
      "stateMutability": "nonpayable",
      "type": "constructor"
    },
    {
      "anonymous": false,
      "inputs": [
        {
          "indexed": true,
          "internalType": "address",
          "name": "owner",
          "type": "address"
        },
        {
          "indexed": true,
          "internalType": "address",
          "name": "spender",
          "type": "address"
        },
        {
          "indexed": false,
          "internalType": "uint256",
          "name": "value",
          "type": "uint256"
        }
      ],
      "name": "Approval",
      "type": "event"
    },
    {
      "anonymous": false,
      "inputs": [
        {
          "indexed": true,
          "internalType": "address",
          "name": "caller",
          "type": "address"
        },
        {
          "indexed": true,
          "internalType": "address",
          "name": "owner",
          "type": "address"
        },
        {
          "indexed": false,
          "internalType": "uint256",
          "name": "assets",
          "type": "uint256"
        },
        {
          "indexed": false,
          "internalType": "uint256",
          "name": "shares",
          "type": "uint256"
        }
      ],
      "name": "Deposit",
      "type": "event"
    },
    {
      "anonymous": false,
      "inputs": [
        {
          "indexed": false,
          "internalType": "uint256",
          "name": "amount",
          "type": "uint256"
        }
      ],
      "name": "ETHRecovered",
      "type": "event"
    },
    {
      "anonymous": false,
      "inputs": [
        {
          "indexed": true,
          "internalType": "address",
          "name": "previousOwner",
          "type": "address"
        },
        {
          "indexed": true,
          "internalType": "address",
          "name": "newOwner",
          "type": "address"
        }
      ],
      "name": "OwnershipTransferred",
      "type": "event"
    },
    {
      "anonymous": false,
      "inputs": [
        {
          "indexed": true,
          "internalType": "address",
          "name": "token",
          "type": "address"
        },
        {
          "indexed": false,
          "internalType": "uint256",
          "name": "amount",
          "type": "uint256"
        }
      ],
      "name": "TokensRecovered",
      "type": "event"
    },
    {
      "anonymous": false,
      "inputs": [
        {
          "indexed": true,
          "internalType": "address",
          "name": "from",
          "type": "address"
        },
        {
          "indexed": true,
          "internalType": "address",
          "name": "to",
          "type": "address"
        },
        {
          "indexed": false,
          "internalType": "uint256",
          "name": "value",
          "type": "uint256"
        }
      ],
      "name": "Transfer",
      "type": "event"
    },
    {
      "anonymous": false,
      "inputs": [
        {
          "indexed": true,
          "internalType": "address",
          "name": "caller",
          "type": "address"
        },
        {
          "indexed": true,
          "internalType": "address",
          "name": "receiver",
          "type": "address"
        },
        {
          "indexed": false,
          "internalType": "uint256",
          "name": "assets",
          "type": "uint256"
        },
        {
          "indexed": false,
          "internalType": "uint256",
          "name": "shares",
          "type": "uint256"
        }
      ],
      "name": "Withdraw",
      "type": "event"
    },
    {
      "inputs": [
        {
          "internalType": "address",
          "name": "owner",
          "type": "address"
        },
        {
          "internalType": "address",
          "name": "spender",
          "type": "address"
        }
      ],
      "name": "allowance",
      "outputs": [
        {
          "internalType": "uint256",
          "name": "",
          "type": "uint256"
        }
      ],
      "stateMutability": "view",
      "type": "function"
    },
    {
      "inputs": [
        {
          "internalType": "address",
          "name": "spender",
          "type": "address"
        },
        {
          "internalType": "uint256",
          "name": "amount",
          "type": "uint256"
        }
      ],
      "name": "approve",
      "outputs": [
        {
          "internalType": "bool",
          "name": "",
          "type": "bool"
        }
      ],
      "stateMutability": "nonpayable",
      "type": "function"
    },
    {
      "inputs": [],
      "name": "asset",
      "outputs": [
        {
          "internalType": "contract IERC20",
          "name": "",
          "type": "address"
        }
      ],
      "stateMutability": "view",
      "type": "function"
    },
    {
      "inputs": [
        {
          "internalType": "address",
          "name": "account",
          "type": "address"
        }
      ],
      "name": "balanceOf",
      "outputs": [
        {
          "internalType": "uint256",
          "name": "",
          "type": "uint256"
        }
      ],
      "stateMutability": "view",
      "type": "function"
    },
    {
      "inputs": [],
      "name": "decimals",
      "outputs": [
        {
          "internalType": "uint8",
          "name": "",
          "type": "uint8"
        }
      ],
      "stateMutability": "view",
      "type": "function"
    },
    {
      "inputs": [
        {
          "internalType": "address",
          "name": "spender",
          "type": "address"
        },
        {
          "internalType": "uint256",
          "name": "subtractedValue",
          "type": "uint256"
        }
      ],
      "name": "decreaseAllowance",
      "outputs": [
        {
          "internalType": "bool",
          "name": "",
          "type": "bool"
        }
      ],
      "stateMutability": "nonpayable",
      "type": "function"
    },
    {
      "inputs": [
        {
          "internalType": "uint256",
          "name": "assets",
          "type": "uint256"
        },
        {
          "internalType": "address",
          "name": "receiver",
          "type": "address"
        }
      ],
      "name": "deposit",
      "outputs": [
        {
          "internalType": "uint256",
          "name": "shares",
          "type": "uint256"
        }
      ],
      "stateMutability": "nonpayable",
      "type": "function"
    },
    {
      "inputs": [
        {
          "internalType": "address",
          "name": "spender",
          "type": "address"
        },
        {
          "internalType": "uint256",
          "name": "addedValue",
          "type": "uint256"
        }
      ],
      "name": "increaseAllowance",
      "outputs": [
        {
          "internalType": "bool",
          "name": "",
          "type": "bool"
        }
      ],
      "stateMutability": "nonpayable",
      "type": "function"
    },
    {
      "inputs": [
        {
          "internalType": "uint256",
          "name": "amount",
          "type": "uint256"
        }
      ],
      "name": "mintMockUSDC",
      "outputs": [],
      "stateMutability": "nonpayable",
      "type": "function"
    },
    {
      "inputs": [],
      "name": "name",
      "outputs": [
        {
          "internalType": "string",
          "name": "",
          "type": "string"
        }
      ],
      "stateMutability": "view",
      "type": "function"
    },
    {
      "inputs": [],
      "name": "owner",
      "outputs": [
        {
          "internalType": "address",
          "name": "",
          "type": "address"
        }
      ],
      "stateMutability": "view",
      "type": "function"
    },
    {
      "inputs": [
        {
          "internalType": "address",
          "name": "tokenAddress",
          "type": "address"
        },
        {
          "internalType": "uint256",
          "name": "amount",
          "type": "uint256"
        }
      ],
      "name": "recoverERC20",
      "outputs": [],
      "stateMutability": "nonpayable",
      "type": "function"
    },
    {
      "inputs": [
        {
          "internalType": "uint256",
          "name": "amount",
          "type": "uint256"
        }
      ],
      "name": "recoverETH",
      "outputs": [],
      "stateMutability": "nonpayable",
      "type": "function"
    },
    {
      "inputs": [],
      "name": "renounceOwnership",
      "outputs": [],
      "stateMutability": "nonpayable",
      "type": "function"
    },
    {
      "inputs": [
        {
          "internalType": "uint256",
          "name": "yieldAmount",
          "type": "uint256"
        }
      ],
      "name": "simulateYield",
      "outputs": [],
      "stateMutability": "nonpayable",
      "type": "function"
    },
    {
      "inputs": [],
      "name": "symbol",
      "outputs": [
        {
          "internalType": "string",
          "name": "",
          "type": "string"
        }
      ],
      "stateMutability": "view",
      "type": "function"
    },
    {
      "inputs": [],
      "name": "totalAssets",
      "outputs": [
        {
          "internalType": "uint256",
          "name": "",
          "type": "uint256"
        }
      ],
      "stateMutability": "view",
      "type": "function"
    },
    {
      "inputs": [],
      "name": "totalSupply",
      "outputs": [
        {
          "internalType": "uint256",
          "name": "",
          "type": "uint256"
        }
      ],
      "stateMutability": "view",
      "type": "function"
    },
    {
      "inputs": [],
      "name": "totalUnderlying",
      "outputs": [
        {
          "internalType": "uint256",
          "name": "",
          "type": "uint256"
        }
      ],
      "stateMutability": "view",
      "type": "function"
    },
    {
      "inputs": [
        {
          "internalType": "address",
          "name": "to",
          "type": "address"
        },
        {
          "internalType": "uint256",
          "name": "amount",
          "type": "uint256"
        }
      ],
      "name": "transfer",
      "outputs": [
        {
          "internalType": "bool",
          "name": "",
          "type": "bool"
        }
      ],
      "stateMutability": "nonpayable",
      "type": "function"
    },
    {
      "inputs": [
        {
          "internalType": "address",
          "name": "from",
          "type": "address"
        },
        {
          "internalType": "address",
          "name": "to",
          "type": "address"
        },
        {
          "internalType": "uint256",
          "name": "amount",
          "type": "uint256"
        }
      ],
      "name": "transferFrom",
      "outputs": [
        {
          "internalType": "bool",
          "name": "",
          "type": "bool"
        }
      ],
      "stateMutability": "nonpayable",
      "type": "function"
    },
    {
      "inputs": [
        {
          "internalType": "address",
          "name": "newOwner",
          "type": "address"
        }
      ],
      "name": "transferOwnership",
      "outputs": [],
      "stateMutability": "nonpayable",
      "type": "function"
    },
    {
      "inputs": [
        {
          "internalType": "uint256",
          "name": "assets",
          "type": "uint256"
        },
        {
          "internalType": "address",
          "name": "receiver",
          "type": "address"
        },
        {
          "internalType": "address",
          "name": "owner",
          "type": "address"
        }
      ],
      "name": "withdraw",
      "outputs": [
        {
          "internalType": "uint256",
          "name": "shares",
          "type": "uint256"
        }
      ],
      "stateMutability": "nonpayable",
      "type": "function"
    },
    {
      "stateMutability": "payable",
      "type": "receive"
    }
  ],
  "transactionHash": "0xd7a2d23ff483f0f51527aff312d66ec260c8dc6111fc981b363884c648cc4d27",
  "args": [
    "0x94d07C7Aa3F8910ACeF21300098DA9171d06220C"
  ],
  "numDeployments": 1,
  "solcInputHash": "3b45d1f6b408afa2443d278026f50e60",
  "bytecode": "0x60a034620003cf57601f19906001600160401b0390601f6200179b388190038281018616840185811185821017620002d357849282916040528339602093849181010312620003cf57516001600160a01b03938482169391849003620003cf5762000069620003d4565b92601584527f4d6f636b4d6f7270686f5661756c742053686172650000000000000000000000838501526200009d620003d4565b9060068252656d536861726560d01b84830152845191838311620002d35760039283546001978882811c92168015620003c4575b88831014620003ae57818584931162000358575b508790858311600114620002f557600092620002e9575b505060001982861b1c191690871b1783555b8051938411620002d357600494855499878b811c9b168015620002c8575b828c1014620002b3578a848798999a9b9c1162000255575b5081938611600114620001ea575050600093620001de575b505082851b92600019911b1c19161790555b60058054336001600160a01b03198216811790925560405194167f8be0079c531659141344cd1fd0a4f28419497f9722a3daafe3b4186f6b6457e0600080a36006556080526113a69081620003f58239608051818181610489015281816106da01528181610b1d0152610cb00152f35b0151915038806200015c565b88969493929194168760005284600020946000905b8282106200023b575050851162000220575b50505050811b0190556200016e565b01519060f884600019921b161c191690553880808062000211565b8484015187558a98909601959384019390810190620001ff565b9091929394955087600052826000208580890160051c820192858a10620002a9575b918b918a999897969594930160051c01915b8281106200029957505062000144565b600081558998508b910162000289565b9250819262000277565b602287634e487b7160e01b6000525260246000fd5b9a607f169a6200012c565b634e487b7160e01b600052604160045260246000fd5b015190503880620000fc565b908c8a94169187600052896000209260005b8b82821062000341575050841162000328575b505050811b0183556200010e565b015160001983881b60f8161c191690553880806200031a565b8385015186558d9790950194938401930162000307565b90915085600052876000208580850160051c8201928a8610620003a4575b918b91869594930160051c01915b82811062000394575050620000e5565b600081558594508b910162000384565b9250819262000376565b634e487b7160e01b600052602260045260246000fd5b91607f1691620000d1565b600080fd5b60408051919082016001600160401b03811183821017620002d35760405256fe60806040818152600480361015610021575b505050361561001f57600080fd5b005b600092833560e01c90816301e1d11414610f025750806306fdde0314610e0e578063095ea7b314610de457806318160ddd14610dc557806323b872dd14610cfb578063313ce56714610cdf57806338d52e0f14610c9b5780633950935114610c4b5780636e553f6514610ab657806370a0823114610a7f578063715018a614610a225780638980f11f1461094d5780638da5cb5b1461092457806395d89b4114610820578063a457c2d714610779578063a9059cbb14610748578063ae79898f1461067b578063b460af9414610393578063c70920bc14610374578063d33355531461027d578063dd62ed3e14610234578063e7ca856d146101f55763f2fde38b0361001157346101f15760203660031901126101f157610140610f67565b90610149610f98565b6001600160a01b0391821692831561019f575050600554826bffffffffffffffffffffffff60a01b821617600555167f8be0079c531659141344cd1fd0a4f28419497f9722a3daafe3b4186f6b6457e08380a380f35b906020608492519162461bcd60e51b8352820152602660248201527f4f776e61626c653a206e6577206f776e657220697320746865207a65726f206160448201526564647265737360d01b6064820152fd5b8280fd5b8382346102305760203660031901126102305761022590610214610f98565b61021c61131a565b35600754611028565b600755600160065580f35b5080fd5b50503461023057806003193601126102305780602092610252610f67565b61025a610f82565b6001600160a01b0391821683526001865283832091168252845220549051908152f35b5090346101f15760203660031901126101f15781359161029b610f98565b6102a361131a565b838080808660018060a01b03600554165af13d1561036f573d67ffffffffffffffff811161035c578351906102e2601f8201601f191660200183610ff0565b81528560203d92013e5b1561032457507f0296f2c4dbc8c0e53c0ffab63f84aeebd5c28aa143475a37346bf15ac003f3279160209151908152a1600160065580f35b6020606492519162461bcd60e51b83528201526013602482015272115512081d1c985b9cd9995c8819985a5b1959606a1b6044820152fd5b634e487b7160e01b865260418352602486fd5b6102ec565b5050346102305781600319360112610230576020906007549051908152f35b5090346101f15760603660031901126101f1578135916103b1610f82565b6044356001600160a01b038181169692939092918781036101f1576103d78715156112bb565b8660075410610638578733036105c4575b508615610577578682526020968288528583205487811061052957839283838a89948d96829952838752038a83205586600254036002557fddf252ad1be2c89b69c2b068fc378daa952ba7f163c4a11628f55a4df523b3ef858b51898152a36104538560075461130d565b600755875163a9059cbb60e01b81526001600160a01b0390921690820190815260208101949094529283908190604001038184877f0000000000000000000000000000000000000000000000000000000000000000165af190811561051e57506104f1575b50825191848352848684015216907ff341246adaac6f497bc2a656f546ab9e182111d630394f0c57c710a59a2cb567833392a351908152f35b61051090863d8811610517575b6105088183610ff0565b8101906112f5565b50386104b8565b503d6104fe565b8551903d90823e3d90fd5b865162461bcd60e51b81528084018a9052602260248201527f45524332303a206275726e20616d6f756e7420657863656564732062616c616e604482015261636560f01b6064820152608490fd5b608490602086519162461bcd60e51b8352820152602160248201527f45524332303a206275726e2066726f6d20746865207a65726f206164647265736044820152607360f81b6064820152fd5b8783526001602052858320338452602052858320548781106105fc57906105ee886105f69361130d565b9033906111b9565b386103e8565b865162461bcd60e51b81526020818501526016602482015275696e73756666696369656e7420616c6c6f77616e636560501b6044820152606490fd5b855162461bcd60e51b8152602081840152601760248201527f696e73756666696369656e7420756e6465726c79696e670000000000000000006044820152606490fd5b50346101f15760203660031901126101f1576106d560208235809361069e610f98565b6106a661131a565b85516323b872dd60e01b8152339181019182523060208301526040820192909252909283918291606090910190565b0381877f00000000000000000000000000000000000000000000000000000000000000006001600160a01b03165af1801561073b57610225935061071d575b50600754611028565b6107349060203d8111610517576105088183610ff0565b5038610714565b50505051903d90823e3d90fd5b505034610230578060031936011261023057602090610772610768610f67565b602435903361104b565b5160018152f35b50823461081d578260031936011261081d57610793610f67565b918360243592338152600160205281812060018060a01b03861682526020522054908282106107cc5760208561077285850387336111b9565b608490602086519162461bcd60e51b8352820152602560248201527f45524332303a2064656372656173656420616c6c6f77616e63652062656c6f77604482015264207a65726f60d81b6064820152fd5b80fd5b50919034610230578160031936011261023057805191809380549160019083821c9282851694851561091a575b6020958686108114610907578589529081156108e3575060011461088b575b610887878761087d828c0383610ff0565b5191829182610f1e565b0390f35b81529295507f8a35acfbc15ff81a39ae7d344fd709f28e8600b4aa8c65c6b64bfe7fe36bd19b5b8284106108d057505050826108879461087d9282010194388061086c565b80548685018801529286019281016108b2565b60ff19168887015250505050151560051b830101925061087d82610887388061086c565b634e487b7160e01b845260228352602484fd5b93607f169361084d565b50503461023057816003193601126102305760055490516001600160a01b039091168152602090f35b5090346101f157806003193601126101f15760209061096a610f67565b92602435928391610979610f98565b61098161131a565b600554845163a9059cbb60e01b81526001600160a01b039182169281019283526020830194909452959095169482908190604001038188885af18015610a1857917f46d2e6e71fc567877b817ff3d940571f989d4ee4d40f2b70806d36e738feef6f93916020936109fb575b5051908152a2600160065580f35b610a1190843d8111610517576105088183610ff0565b50386109ed565b82513d87823e3d90fd5b833461081d578060031936011261081d57610a3b610f98565b600580546001600160a01b0319811690915581906001600160a01b03167f8be0079c531659141344cd1fd0a4f28419497f9722a3daafe3b4186f6b6457e08280a380f35b5050346102305760203660031901126102305760209181906001600160a01b03610aa7610f67565b16815280845220549051908152f35b5090346101f157806003193601126101f157813591610ad3610f82565b93610adf8415156112bb565b82516323b872dd60e01b8152338382019081523060208083019190915260408201879052966001600160a01b039290918890829081900360600181877f000000000000000000000000000000000000000000000000000000000000000088165af18015610c4157610c24575b5016918215610be157508190610b6385600254611028565b6002558181528086528381208581540190557fddf252ad1be2c89b69c2b068fc378daa952ba7f163c4a11628f55a4df523b3ef868551878152a3610ba983600754611028565b600755815183815283858201527fdcbc1c05240f31ff3ad067ef1ee35ce4997762752e3a095284754544f4c709d7833392a351908152f35b835162461bcd60e51b8152908101869052601f60248201527f45524332303a206d696e7420746f20746865207a65726f2061646472657373006044820152606490fd5b610c3a90883d8a11610517576105088183610ff0565b5038610b4b565b86513d86823e3d90fd5b505034610230578060031936011261023057610772602092610c94610c6e610f67565b338352600186528483206001600160a01b03821684528652918490205460243590611028565b90336111b9565b505034610230578160031936011261023057517f00000000000000000000000000000000000000000000000000000000000000006001600160a01b03168152602090f35b5050346102305781600319360112610230576020905160128152f35b5082903461023057606036600319011261023057610d17610f67565b610d1f610f82565b91846044359460018060a01b038416815260016020528181203382526020522054906000198203610d59575b60208661077287878761104b565b848210610d825750918391610d7760209695610772950333836111b9565b919394819350610d4b565b606490602087519162461bcd60e51b8352820152601d60248201527f45524332303a20696e73756666696369656e7420616c6c6f77616e63650000006044820152fd5b5050346102305781600319360112610230576020906002549051908152f35b505034610230578060031936011261023057602090610772610e04610f67565b60243590336111b9565b5090346101f157826003193601126101f157805191836003549060019082821c928281168015610ef8575b6020958686108214610ee55750848852908115610ec35750600114610e6a575b610887868661087d828b0383610ff0565b929550600383527fc2575a0e9e593c00f959f8c92f12db2869c3395a3b0502d05e2516446f71f85b5b828410610eb057505050826108879461087d928201019438610e59565b8054868501880152928601928101610e93565b60ff191687860152505050151560051b830101925061087d8261088738610e59565b634e487b7160e01b845260229052602483fd5b93607f1693610e39565b8490346102305781600319360112610230576020906007548152f35b6020808252825181830181905290939260005b828110610f5357505060409293506000838284010152601f8019910116010190565b818101860151848201604001528501610f31565b600435906001600160a01b0382168203610f7d57565b600080fd5b602435906001600160a01b0382168203610f7d57565b6005546001600160a01b03163303610fac57565b606460405162461bcd60e51b815260206004820152602060248201527f4f776e61626c653a2063616c6c6572206973206e6f7420746865206f776e65726044820152fd5b90601f8019910116810190811067ffffffffffffffff82111761101257604052565b634e487b7160e01b600052604160045260246000fd5b9190820180921161103557565b634e487b7160e01b600052601160045260246000fd5b6001600160a01b039081169182156111665716918215611115576000828152806020526040812054918083106110c157604082827fddf252ad1be2c89b69c2b068fc378daa952ba7f163c4a11628f55a4df523b3ef958760209652828652038282205586815220818154019055604051908152a3565b60405162461bcd60e51b815260206004820152602660248201527f45524332303a207472616e7366657220616d6f756e7420657863656564732062604482015265616c616e636560d01b6064820152608490fd5b60405162461bcd60e51b815260206004820152602360248201527f45524332303a207472616e7366657220746f20746865207a65726f206164647260448201526265737360e81b6064820152608490fd5b60405162461bcd60e51b815260206004820152602560248201527f45524332303a207472616e736665722066726f6d20746865207a65726f206164604482015264647265737360d81b6064820152608490fd5b6001600160a01b0390811691821561126a571691821561121a5760207f8c5be1e5ebec7d5bd14f71427d1e84f3dd0314c0f7b2291e5b200ac8c7c3b925918360005260018252604060002085600052825280604060002055604051908152a3565b60405162461bcd60e51b815260206004820152602260248201527f45524332303a20617070726f766520746f20746865207a65726f206164647265604482015261737360f01b6064820152608490fd5b60405162461bcd60e51b8152602060048201526024808201527f45524332303a20617070726f76652066726f6d20746865207a65726f206164646044820152637265737360e01b6064820152608490fd5b156112c257565b60405162461bcd60e51b815260206004820152600b60248201526a1e995c9bc8185b5bdd5b9d60aa1b6044820152606490fd5b90816020910312610f7d57518015158103610f7d5790565b9190820391821161103557565b60026006541461132b576002600655565b60405162461bcd60e51b815260206004820152601f60248201527f5265656e7472616e637947756172643a207265656e7472616e742063616c6c006044820152606490fdfea264697066735822122028650e25aefde416cf2765eace6dd5d32061d85e610f927b8033c032dcd8d85a64736f6c63430008140033",
  "devdoc": {
    "events": {
      "Approval(address,address,uint256)": {
        "details": "Emitted when the allowance of a `spender` for an `owner` is set by a call to {approve}. `value` is the new allowance."
      },
      "Transfer(address,address,uint256)": {
        "details": "Emitted when `value` tokens are moved from one account (`from`) to another (`to`). Note that `value` may be zero."
      }
    },
    "kind": "dev",
    "methods": {
      "allowance(address,address)": {
        "details": "See {IERC20-allowance}."
      },
      "approve(address,uint256)": {
        "details": "See {IERC20-approve}. NOTE: If `amount` is the maximum `uint256`, the allowance is not updated on `transferFrom`. This is semantically equivalent to an infinite approval. Requirements: - `spender` cannot be the zero address."
      },
      "balanceOf(address)": {
        "details": "See {IERC20-balanceOf}."
      },
      "decimals()": {
        "details": "Returns the number of decimals used to get its user representation. For example, if `decimals` equals `2`, a balance of `505` tokens should be displayed to a user as `5.05` (`505 / 10 ** 2`). Tokens usually opt for a value of 18, imitating the relationship between Ether and Wei. This is the default value returned by this function, unless it's overridden. NOTE: This information is only used for _display_ purposes: it in no way affects any of the arithmetic of the contract, including {IERC20-balanceOf} and {IERC20-transfer}."
      },
      "decreaseAllowance(address,uint256)": {
        "details": "Atomically decreases the allowance granted to `spender` by the caller. This is an alternative to {approve} that can be used as a mitigation for problems described in {IERC20-approve}. Emits an {Approval} event indicating the updated allowance. Requirements: - `spender` cannot be the zero address. - `spender` must have allowance for the caller of at least `subtractedValue`."
      },
      "increaseAllowance(address,uint256)": {
        "details": "Atomically increases the allowance granted to `spender` by the caller. This is an alternative to {approve} that can be used as a mitigation for problems described in {IERC20-approve}. Emits an {Approval} event indicating the updated allowance. Requirements: - `spender` cannot be the zero address."
      },
      "name()": {
        "details": "Returns the name of the token."
      },
      "owner()": {
        "details": "Returns the address of the current owner."
      },
      "renounceOwnership()": {
        "details": "Leaves the contract without owner. It will not be possible to call `onlyOwner` functions. Can only be called by the current owner. NOTE: Renouncing ownership will leave the contract without an owner, thereby disabling any functionality that is only available to the owner."
      },
      "symbol()": {
        "details": "Returns the symbol of the token, usually a shorter version of the name."
      },
      "totalSupply()": {
        "details": "See {IERC20-totalSupply}."
      },
      "transfer(address,uint256)": {
        "details": "See {IERC20-transfer}. Requirements: - `to` cannot be the zero address. - the caller must have a balance of at least `amount`."
      },
      "transferFrom(address,address,uint256)": {
        "details": "See {IERC20-transferFrom}. Emits an {Approval} event indicating the updated allowance. This is not required by the EIP. See the note at the beginning of {ERC20}. NOTE: Does not update the allowance if the current allowance is the maximum `uint256`. Requirements: - `from` and `to` cannot be the zero address. - `from` must have a balance of at least `amount`. - the caller must have allowance for ``from``'s tokens of at least `amount`."
      },
      "transferOwnership(address)": {
        "details": "Transfers ownership of the contract to a new account (`newOwner`). Can only be called by the current owner."
      }
    },
    "version": 1
  },
  "userdoc": {
    "kind": "user",
    "methods": {
      "recoverERC20(address,uint256)": {
        "notice": "Recover any stray ERC20 or ETH sent here accidentally"
      }
    },
    "version": 1
  },
  "storageLayout": {
    "storage": [
      {
        "astId": 221,
        "contract": "contracts/MockMorphoVault.sol:MockMorphoVault",
        "label": "_balances",
        "offset": 0,
        "slot": "0",
        "type": "t_mapping(t_address,t_uint256)"
      },
      {
        "astId": 227,
        "contract": "contracts/MockMorphoVault.sol:MockMorphoVault",
        "label": "_allowances",
        "offset": 0,
        "slot": "1",
        "type": "t_mapping(t_address,t_mapping(t_address,t_uint256))"
      },
      {
        "astId": 229,
        "contract": "contracts/MockMorphoVault.sol:MockMorphoVault",
        "label": "_totalSupply",
        "offset": 0,
        "slot": "2",
        "type": "t_uint256"
      },
      {
        "astId": 231,
        "contract": "contracts/MockMorphoVault.sol:MockMorphoVault",
        "label": "_name",
        "offset": 0,
        "slot": "3",
        "type": "t_string_storage"
      },
      {
        "astId": 233,
        "contract": "contracts/MockMorphoVault.sol:MockMorphoVault",
        "label": "_symbol",
        "offset": 0,
        "slot": "4",
        "type": "t_string_storage"
      },
      {
        "astId": 7,
        "contract": "contracts/MockMorphoVault.sol:MockMorphoVault",
        "label": "_owner",
        "offset": 0,
        "slot": "5",
        "type": "t_address"
      },
      {
        "astId": 151,
        "contract": "contracts/MockMorphoVault.sol:MockMorphoVault",
        "label": "_status",
        "offset": 0,
        "slot": "6",
        "type": "t_uint256"
      },
      {
        "astId": 4932,
        "contract": "contracts/MockMorphoVault.sol:MockMorphoVault",
        "label": "totalUnderlying",
        "offset": 0,
        "slot": "7",
        "type": "t_uint256"
      }
    ],
    "types": {
      "t_address": {
        "encoding": "inplace",
        "label": "address",
        "numberOfBytes": "20"
      },
      "t_mapping(t_address,t_mapping(t_address,t_uint256))": {
        "encoding": "mapping",
        "key": "t_address",
        "label": "mapping(address => mapping(address => uint256))",
        "numberOfBytes": "32",
        "value": "t_mapping(t_address,t_uint256)"
      },
      "t_mapping(t_address,t_uint256)": {
        "encoding": "mapping",
        "key": "t_address",
        "label": "mapping(address => uint256)",
        "numberOfBytes": "32",
        "value": "t_uint256"
      },
      "t_string_storage": {
        "encoding": "bytes",
        "label": "string",
        "numberOfBytes": "32"
      },
      "t_uint256": {
        "encoding": "inplace",
        "label": "uint256",
        "numberOfBytes": "32"
      }
    }
  }
}